{
  "contractName": "Apuestas",
  "abi": [
    {
      "constant": true,
      "inputs": [
        {
          "name": "",
          "type": "uint256"
        },
        {
          "name": "",
          "type": "uint256"
        }
      ],
      "name": "apuestas",
      "outputs": [
        {
          "name": "id",
          "type": "uint256"
        },
        {
          "name": "ganar",
          "type": "uint256"
        },
        {
          "name": "perder",
          "type": "uint256"
        },
        {
          "name": "creador",
          "type": "address"
        },
        {
          "name": "consumidor",
          "type": "address"
        },
        {
          "name": "golesLocal",
          "type": "uint8"
        },
        {
          "name": "golesVisitante",
          "type": "uint8"
        },
        {
          "name": "procesado",
          "type": "bool"
        }
      ],
      "payable": false,
      "stateMutability": "view",
      "type": "function"
    },
    {
      "constant": true,
      "inputs": [
        {
          "name": "",
          "type": "uint256"
        }
      ],
      "name": "partidos",
      "outputs": [
        {
          "name": "idPartido",
          "type": "uint256"
        },
        {
          "name": "local",
          "type": "string"
        },
        {
          "name": "visitante",
          "type": "string"
        }
      ],
      "payable": false,
      "stateMutability": "view",
      "type": "function"
    },
    {
      "inputs": [],
      "payable": true,
      "stateMutability": "payable",
      "type": "constructor"
    },
    {
      "anonymous": false,
      "inputs": [
        {
          "indexed": false,
          "name": "idApuesta",
          "type": "uint256"
        }
      ],
      "name": "IdApuesta",
      "type": "event"
    },
    {
      "constant": false,
      "inputs": [
        {
          "name": "beneficio",
          "type": "uint256"
        },
        {
          "name": "perdidas",
          "type": "uint256"
        },
        {
          "name": "golesLocal",
          "type": "uint8"
        },
        {
          "name": "golesVisitante",
          "type": "uint8"
        },
        {
          "name": "idPartido",
          "type": "uint256"
        }
      ],
      "name": "crearApuesta",
      "outputs": [],
      "payable": true,
      "stateMutability": "payable",
      "type": "function"
    },
    {
      "constant": false,
      "inputs": [
        {
          "name": "idPartido",
          "type": "uint256"
        },
        {
          "name": "idApuesta",
          "type": "uint256"
        }
      ],
      "name": "aceptarApuesta",
      "outputs": [],
      "payable": true,
      "stateMutability": "payable",
      "type": "function"
    },
    {
      "constant": false,
      "inputs": [
        {
          "name": "idPartido",
          "type": "uint256"
        },
        {
          "name": "golesLocal",
          "type": "uint8"
        },
        {
          "name": "golesVisitante",
          "type": "uint8"
        }
      ],
      "name": "solveApuestas",
      "outputs": [],
      "payable": false,
      "stateMutability": "nonpayable",
      "type": "function"
    },
    {
      "constant": false,
      "inputs": [
        {
          "name": "idPartido",
          "type": "uint256"
        }
      ],
      "name": "startMatch",
      "outputs": [],
      "payable": false,
      "stateMutability": "nonpayable",
      "type": "function"
    }
  ],
  "bytecode": "0x6060604052600160005533600360006101000a81548173ffffffffffffffffffffffffffffffffffffffff021916908373ffffffffffffffffffffffffffffffffffffffff160217905550606060405190810160405280600181526020016040805190810160405280600681526020017f4d6164726964000000000000000000000000000000000000000000000000000081525081526020016040805190810160405280600981526020017f42617263656c6f6e610000000000000000000000000000000000000000000000815250815250600260006001815260200190815260200160002060008201518160000155602082015181600101908051906020019061010b929190610213565b506040820151816002019080519060200190610128929190610213565b50905050606060405190810160405280600281526020016040805190810160405280601281526020017f41746c657469636f206465204d6164726964000000000000000000000000000081525081526020016040805190810160405280601281526020017f4174686c657469632064652042696c62616f000000000000000000000000000081525081525060026000600281526020019081526020016000206000820151816000015560208201518160010190805190602001906101ed929190610213565b50604082015181600201908051906020019061020a929190610213565b509050506102b8565b828054600181600116156101000203166002900490600052602060002090601f016020900481019282601f1061025457805160ff1916838001178555610282565b82800160010185558215610282579182015b82811115610281578251825591602001919060010190610266565b5b50905061028f9190610293565b5090565b6102b591905b808211156102b1576000816000905550600101610299565b5090565b90565b610bef806102c76000396000f300606060405260043610610078576000357c0100000000000000000000000000000000000000000000000000000000900463ffffffff16806312a1dc7f1461007d57806340deb070146101565780637f93d7b51461029f578063a6b8d8b8146102da578063bf725a84146102fb578063fcff276a1461031e575b600080fd5b341561008857600080fd5b6100a76004808035906020019091908035906020019091905050610360565b604051808981526020018881526020018781526020018673ffffffffffffffffffffffffffffffffffffffff1673ffffffffffffffffffffffffffffffffffffffff1681526020018573ffffffffffffffffffffffffffffffffffffffff1673ffffffffffffffffffffffffffffffffffffffff1681526020018460ff1660ff1681526020018360ff1660ff168152602001821515151581526020019850505050505050505060405180910390f35b341561016157600080fd5b610177600480803590602001909190505061041c565b60405180848152602001806020018060200183810383528581815460018160011615610100020316600290048152602001915080546001816001161561010002031660029004801561020a5780601f106101df5761010080835404028352916020019161020a565b820191906000526020600020905b8154815290600101906020018083116101ed57829003601f168201915b505083810382528481815460018160011615610100020316600290048152602001915080546001816001161561010002031660029004801561028d5780601f106102625761010080835404028352916020019161028d565b820191906000526020600020905b81548152906001019060200180831161027057829003601f168201915b50509550505050505060405180910390f35b34156102aa57600080fd5b6102d8600480803590602001909190803560ff1690602001909190803560ff16906020019091905050610444565b005b6102f96004808035906020019091908035906020019091905050610659565b005b341561030657600080fd5b61031c60048080359060200190919050506107c5565b005b61035e600480803590602001909190803590602001909190803560ff1690602001909190803560ff16906020019091908035906020019091905050610979565b005b6001602052816000526040600020602052806000526040600020600091509150508060000154908060010154908060020154908060030160009054906101000a900473ffffffffffffffffffffffffffffffffffffffff16908060040160009054906101000a900473ffffffffffffffffffffffffffffffffffffffff16908060040160149054906101000a900460ff16908060040160159054906101000a900460ff16908060040160169054906101000a900460ff16905088565b6002602052806000526040600020600091509050806000015490806001019080600201905083565b600080600360009054906101000a900473ffffffffffffffffffffffffffffffffffffffff1673ffffffffffffffffffffffffffffffffffffffff163373ffffffffffffffffffffffffffffffffffffffff161415156104a357600080fd5b6104ac85610b95565b15156104b757600080fd5b600191505b6000548210156106525760016000868152602001908152602001600020600083815260200190815260200160002090508060040160169054906101000a900460ff1615156106455760018160040160166101000a81548160ff0219169083151502179055508360ff168160040160149054906101000a900460ff1660ff1614801561055d57508260ff168160040160159054906101000a900460ff1660ff16145b156105d5578060030160009054906101000a900473ffffffffffffffffffffffffffffffffffffffff1673ffffffffffffffffffffffffffffffffffffffff166108fc82600201548360010154019081150290604051600060405180830381858888f1935050505015156105d057600080fd5b610644565b8060040160009054906101000a900473ffffffffffffffffffffffffffffffffffffffff1673ffffffffffffffffffffffffffffffffffffffff166108fc82600201548360020154019081150290604051600060405180830381858888f19350505050151561064357600080fd5b5b5b81806001019250506104bc565b5050505050565b61066282610b95565b151561066d57600080fd5b600060016000848152602001908152602001600020600083815260200190815260200160002060000154141515156106a457600080fd5b600073ffffffffffffffffffffffffffffffffffffffff1660016000848152602001908152602001600020600083815260200190815260200160002060040160009054906101000a900473ffffffffffffffffffffffffffffffffffffffff1673ffffffffffffffffffffffffffffffffffffffff1614151561072657600080fd5b600160008381526020019081526020016000206000828152602001908152602001600020600101543414151561075b57600080fd5b3360016000848152602001908152602001600020600083815260200190815260200160002060040160006101000a81548173ffffffffffffffffffffffffffffffffffffffff021916908373ffffffffffffffffffffffffffffffffffffffff1602179055505050565b600080600360009054906101000a900473ffffffffffffffffffffffffffffffffffffffff1673ffffffffffffffffffffffffffffffffffffffff163373ffffffffffffffffffffffffffffffffffffffff1614151561082457600080fd5b61082d83610b95565b151561083857600080fd5b600191505b6000548210156109745760016000848152602001908152602001600020600083815260200190815260200160002090508060040160169054906101000a900460ff161580156108dc5750600073ffffffffffffffffffffffffffffffffffffffff168160040160009054906101000a900473ffffffffffffffffffffffffffffffffffffffff1673ffffffffffffffffffffffffffffffffffffffff16145b156109675760018160040160166101000a81548160ff0219169083151502179055508060030160009054906101000a900473ffffffffffffffffffffffffffffffffffffffff1673ffffffffffffffffffffffffffffffffffffffff166108fc82600201549081150290604051600060405180830381858888f19350505050151561096657600080fd5b5b818060010192505061083d565b505050565b833414151561098757600080fd5b61099081610b95565b151561099b57600080fd5b6101006040519081016040528060005481526020018681526020018581526020013373ffffffffffffffffffffffffffffffffffffffff168152602001600073ffffffffffffffffffffffffffffffffffffffff1681526020018460ff1681526020018360ff168152602001600015158152506001600083815260200190815260200160002060008054815260200190815260200160002060008201518160000155602082015181600101556040820151816002015560608201518160030160006101000a81548173ffffffffffffffffffffffffffffffffffffffff021916908373ffffffffffffffffffffffffffffffffffffffff16021790555060808201518160040160006101000a81548173ffffffffffffffffffffffffffffffffffffffff021916908373ffffffffffffffffffffffffffffffffffffffff16021790555060a08201518160040160146101000a81548160ff021916908360ff16021790555060c08201518160040160156101000a81548160ff021916908360ff16021790555060e08201518160040160166101000a81548160ff0219169083151502179055509050507fd3299290885b5461f5a512810917b3fae7cf28848cdf7c53db6c7f53cf9bfca96000546040518082815260200191505060405180910390a160008081548092919060010191905055505050505050565b6000816002600084815260200190815260200160002060000154148015610bbc5750600082115b90509190505600a165627a7a72305820a5addb4618022d8d22466ca48678e01087608b1f867d10a145d1c0df43192fab0029",
  "source": "pragma solidity ^0.4.17;\r\n\r\ncontract Apuestas {\r\n\r\n   struct Apuesta {\r\n       uint256 id;\r\n       \r\n       uint256 ganar;\r\n       uint256 perder;\r\n       address creador;\r\n       address consumidor;\r\n       \r\n       uint8 golesLocal;\r\n       uint8 golesVisitante;\r\n       \r\n       bool procesado;\r\n   }\r\n   \r\n   struct Partido {\r\n       uint256 idPartido;\r\n       string local;\r\n       string visitante;\r\n   }\r\n   \r\n   uint256 currentApuestaId = 1;\r\n   \r\n   mapping(uint256 => mapping (uint256 => Apuesta)) public apuestas;\r\n   \r\n   mapping(uint256 => Partido) public partidos;\r\n   \r\n   address authorized;\r\n   \r\n   function Apuestas() public payable {\r\n       authorized = msg.sender;\r\n       partidos[1] = Partido(1, \"Madrid\", \"Barcelona\");\r\n       partidos[2] = Partido(2, \"Atletico de Madrid\", \"Athletic de Bilbao\");\r\n   }\r\n\r\n   event IdApuesta(uint256 idApuesta);   \r\n    \r\n   function crearApuesta(uint256 beneficio, uint256 perdidas, uint8 golesLocal, uint8 golesVisitante, uint256 idPartido) public payable {\r\n       require(msg.value == perdidas);\r\n       require(existsMatch(idPartido));\r\n       \r\n       apuestas[idPartido][currentApuestaId] = Apuesta(\r\n               currentApuestaId,\r\n               beneficio,\r\n               perdidas,\r\n               msg.sender,\r\n               address(0),\r\n               golesLocal,\r\n               golesVisitante,\r\n               false\r\n           );\r\n           IdApuesta(currentApuestaId);\r\n           currentApuestaId++;\r\n           \r\n   }\r\n   \r\n   function aceptarApuesta(uint256 idPartido, uint256 idApuesta) public payable {\r\n       \r\n       require(existsMatch(idPartido));\r\n       require(apuestas[idPartido][idApuesta].id != 0);\r\n       require(apuestas[idPartido][idApuesta].consumidor == address(0));\r\n       \r\n       require(msg.value == apuestas[idPartido][idApuesta].ganar);\r\n       \r\n       apuestas[idPartido][idApuesta].consumidor = msg.sender;\r\n   }\r\n   \r\n   function solveApuestas(uint256 idPartido, uint8 golesLocal, uint8 golesVisitante) public {\r\n       require(msg.sender == authorized);\r\n       require(existsMatch(idPartido));\r\n   \r\n       for(uint i=1;i<currentApuestaId;i++){\r\n           Apuesta ap = apuestas[idPartido][i];\r\n           if(!ap.procesado){\r\n               ap.procesado = true;\r\n               if(ap.golesLocal == golesLocal && ap.golesVisitante == golesVisitante ){\r\n                   ap.creador.transfer(ap.ganar + ap.perder);\r\n               } else {\r\n                   ap.consumidor.transfer(ap.perder + ap.perder);\r\n               }\r\n           }\r\n       }\r\n   }\r\n   \r\n   function startMatch(uint256 idPartido){\r\n       require(msg.sender == authorized);\r\n       require(existsMatch(idPartido));\r\n       \r\n       for(uint i=1;i<currentApuestaId;i++){\r\n           Apuesta ap = apuestas[idPartido][i];\r\n           if(!ap.procesado && ap.consumidor == address(0)){\r\n               ap.procesado = true;\r\n               ap.creador.transfer(ap.perder);\r\n           }\r\n       }\r\n          }\r\n   \r\n   function existsMatch(uint256 idPartido) private returns (bool){\r\n       return partidos[idPartido].idPartido == idPartido && idPartido > 0;\r\n   }\r\n}",
  "sourcePath": "C:\\Users\\pablo\\Pollas\\finalRepo\\HackETHonMarch\\contracts\\Apuestas.sol",
  "compiler": {
    "name": "solc",
    "version": "0.4.19+commit.c4cbbb05.Emscripten.clang"
  },
  "schemaVersion": "2.0.0",
  "updatedAt": "2018-03-03T18:12:43.160Z"
}